{
  "contractName": "myDemoToken",
  "abi": [
    {
      "inputs": [],
      "stateMutability": "nonpayable",
      "type": "constructor"
    },
    {
      "anonymous": false,
      "inputs": [
        {
          "indexed": true,
          "internalType": "address",
          "name": "owner",
          "type": "address"
        },
        {
          "indexed": true,
          "internalType": "address",
          "name": "spender",
          "type": "address"
        },
        {
          "indexed": false,
          "internalType": "uint256",
          "name": "value",
          "type": "uint256"
        }
      ],
      "name": "Approval",
      "type": "event"
    },
    {
      "anonymous": false,
      "inputs": [
        {
          "indexed": true,
          "internalType": "address",
          "name": "previousOwner",
          "type": "address"
        },
        {
          "indexed": true,
          "internalType": "address",
          "name": "newOwner",
          "type": "address"
        }
      ],
      "name": "OwnershipTransferred",
      "type": "event"
    },
    {
      "anonymous": false,
      "inputs": [
        {
          "indexed": false,
          "internalType": "address",
          "name": "account",
          "type": "address"
        }
      ],
      "name": "Paused",
      "type": "event"
    },
    {
      "anonymous": false,
      "inputs": [
        {
          "indexed": true,
          "internalType": "address",
          "name": "from",
          "type": "address"
        },
        {
          "indexed": true,
          "internalType": "address",
          "name": "to",
          "type": "address"
        },
        {
          "indexed": false,
          "internalType": "uint256",
          "name": "value",
          "type": "uint256"
        }
      ],
      "name": "Transfer",
      "type": "event"
    },
    {
      "anonymous": false,
      "inputs": [
        {
          "indexed": false,
          "internalType": "address",
          "name": "account",
          "type": "address"
        }
      ],
      "name": "Unpaused",
      "type": "event"
    },
    {
      "inputs": [
        {
          "internalType": "address",
          "name": "owner",
          "type": "address"
        },
        {
          "internalType": "address",
          "name": "spender",
          "type": "address"
        }
      ],
      "name": "allowance",
      "outputs": [
        {
          "internalType": "uint256",
          "name": "",
          "type": "uint256"
        }
      ],
      "stateMutability": "view",
      "type": "function"
    },
    {
      "inputs": [
        {
          "internalType": "address",
          "name": "spender",
          "type": "address"
        },
        {
          "internalType": "uint256",
          "name": "amount",
          "type": "uint256"
        }
      ],
      "name": "approve",
      "outputs": [
        {
          "internalType": "bool",
          "name": "",
          "type": "bool"
        }
      ],
      "stateMutability": "nonpayable",
      "type": "function"
    },
    {
      "inputs": [
        {
          "internalType": "address",
          "name": "account",
          "type": "address"
        }
      ],
      "name": "balanceOf",
      "outputs": [
        {
          "internalType": "uint256",
          "name": "",
          "type": "uint256"
        }
      ],
      "stateMutability": "view",
      "type": "function"
    },
    {
      "inputs": [
        {
          "internalType": "uint256",
          "name": "amount",
          "type": "uint256"
        }
      ],
      "name": "burn",
      "outputs": [],
      "stateMutability": "nonpayable",
      "type": "function"
    },
    {
      "inputs": [
        {
          "internalType": "address",
          "name": "account",
          "type": "address"
        },
        {
          "internalType": "uint256",
          "name": "amount",
          "type": "uint256"
        }
      ],
      "name": "burnFrom",
      "outputs": [],
      "stateMutability": "nonpayable",
      "type": "function"
    },
    {
      "inputs": [],
      "name": "cap",
      "outputs": [
        {
          "internalType": "uint256",
          "name": "",
          "type": "uint256"
        }
      ],
      "stateMutability": "view",
      "type": "function"
    },
    {
      "inputs": [],
      "name": "decimals",
      "outputs": [
        {
          "internalType": "uint8",
          "name": "",
          "type": "uint8"
        }
      ],
      "stateMutability": "view",
      "type": "function"
    },
    {
      "inputs": [
        {
          "internalType": "address",
          "name": "spender",
          "type": "address"
        },
        {
          "internalType": "uint256",
          "name": "subtractedValue",
          "type": "uint256"
        }
      ],
      "name": "decreaseAllowance",
      "outputs": [
        {
          "internalType": "bool",
          "name": "",
          "type": "bool"
        }
      ],
      "stateMutability": "nonpayable",
      "type": "function"
    },
    {
      "inputs": [
        {
          "internalType": "address",
          "name": "spender",
          "type": "address"
        },
        {
          "internalType": "uint256",
          "name": "addedValue",
          "type": "uint256"
        }
      ],
      "name": "increaseAllowance",
      "outputs": [
        {
          "internalType": "bool",
          "name": "",
          "type": "bool"
        }
      ],
      "stateMutability": "nonpayable",
      "type": "function"
    },
    {
      "inputs": [],
      "name": "name",
      "outputs": [
        {
          "internalType": "string",
          "name": "",
          "type": "string"
        }
      ],
      "stateMutability": "view",
      "type": "function"
    },
    {
      "inputs": [],
      "name": "owner",
      "outputs": [
        {
          "internalType": "address",
          "name": "",
          "type": "address"
        }
      ],
      "stateMutability": "view",
      "type": "function"
    },
    {
      "inputs": [],
      "name": "paused",
      "outputs": [
        {
          "internalType": "bool",
          "name": "",
          "type": "bool"
        }
      ],
      "stateMutability": "view",
      "type": "function"
    },
    {
      "inputs": [],
      "name": "renounceOwnership",
      "outputs": [],
      "stateMutability": "nonpayable",
      "type": "function"
    },
    {
      "inputs": [],
      "name": "symbol",
      "outputs": [
        {
          "internalType": "string",
          "name": "",
          "type": "string"
        }
      ],
      "stateMutability": "view",
      "type": "function"
    },
    {
      "inputs": [],
      "name": "totalSupply",
      "outputs": [
        {
          "internalType": "uint256",
          "name": "",
          "type": "uint256"
        }
      ],
      "stateMutability": "view",
      "type": "function"
    },
    {
      "inputs": [
        {
          "internalType": "address",
          "name": "recipient",
          "type": "address"
        },
        {
          "internalType": "uint256",
          "name": "amount",
          "type": "uint256"
        }
      ],
      "name": "transfer",
      "outputs": [
        {
          "internalType": "bool",
          "name": "",
          "type": "bool"
        }
      ],
      "stateMutability": "nonpayable",
      "type": "function"
    },
    {
      "inputs": [
        {
          "internalType": "address",
          "name": "sender",
          "type": "address"
        },
        {
          "internalType": "address",
          "name": "recipient",
          "type": "address"
        },
        {
          "internalType": "uint256",
          "name": "amount",
          "type": "uint256"
        }
      ],
      "name": "transferFrom",
      "outputs": [
        {
          "internalType": "bool",
          "name": "",
          "type": "bool"
        }
      ],
      "stateMutability": "nonpayable",
      "type": "function"
    },
    {
      "inputs": [
        {
          "internalType": "address",
          "name": "newOwner",
          "type": "address"
        }
      ],
      "name": "transferOwnership",
      "outputs": [],
      "stateMutability": "nonpayable",
      "type": "function"
    },
    {
      "inputs": [
        {
          "internalType": "address",
          "name": "account",
          "type": "address"
        },
        {
          "internalType": "uint256",
          "name": "amount",
          "type": "uint256"
        }
      ],
      "name": "generateTokens",
      "outputs": [],
      "stateMutability": "nonpayable",
      "type": "function"
    }
  ],
  "bytecode": "0x60806040523480156200001157600080fd5b506040518060400160405280600b81526020017f6d7944656d6f546f6b656e0000000000000000000000000000000000000000008152506040518060400160405280600381526020017f4d44540000000000000000000000000000000000000000000000000000000000815250816003908051906020019062000096929190620003ca565b508060049080519060200190620000af929190620003ca565b505050620000d2620000c66200015860201b60201c565b6200016060201b60201c565b6000600560146101000a81548160ff0219169083151502179055506000620000ff6200022660201b60201c565b600a6200010d9190620005ba565b6127106200011c9190620006f7565b9050620001396002826200022f60201b62000ccb1790919060201c565b6006819055506200015133826200024760201b60201c565b5062000839565b600033905090565b6000600560009054906101000a900473ffffffffffffffffffffffffffffffffffffffff16905081600560006101000a81548173ffffffffffffffffffffffffffffffffffffffff021916908373ffffffffffffffffffffffffffffffffffffffff1602179055508173ffffffffffffffffffffffffffffffffffffffff168173ffffffffffffffffffffffffffffffffffffffff167f8be0079c531659141344cd1fd0a4f28419497f9722a3daafe3b4186f6b6457e060405160405180910390a35050565b60006012905090565b600081836200023f9190620006f7565b905092915050565b600073ffffffffffffffffffffffffffffffffffffffff168273ffffffffffffffffffffffffffffffffffffffff161415620002ba576040517f08c379a0000000000000000000000000000000000000000000000000000000008152600401620002b190620004b2565b60405180910390fd5b620002ce60008383620003c060201b60201c565b8060026000828254620002e2919062000502565b92505081905550806000808473ffffffffffffffffffffffffffffffffffffffff1673ffffffffffffffffffffffffffffffffffffffff168152602001908152602001600020600082825462000339919062000502565b925050819055508173ffffffffffffffffffffffffffffffffffffffff16600073ffffffffffffffffffffffffffffffffffffffff167fddf252ad1be2c89b69c2b068fc378daa952ba7f163c4a11628f55a4df523b3ef83604051620003a09190620004d4565b60405180910390a3620003bc60008383620003c560201b60201c565b5050565b505050565b505050565b828054620003d8906200076f565b90600052602060002090601f016020900481019282620003fc576000855562000448565b82601f106200041757805160ff191683800117855562000448565b8280016001018555821562000448579182015b82811115620004475782518255916020019190600101906200042a565b5b5090506200045791906200045b565b5090565b5b80821115620004765760008160009055506001016200045c565b5090565b600062000489601f83620004f1565b9150620004968262000810565b602082019050919050565b620004ac8162000758565b82525050565b60006020820190508181036000830152620004cd816200047a565b9050919050565b6000602082019050620004eb6000830184620004a1565b92915050565b600082825260208201905092915050565b60006200050f8262000758565b91506200051c8362000758565b9250827fffffffffffffffffffffffffffffffffffffffffffffffffffffffffffffffff03821115620005545762000553620007a5565b5b828201905092915050565b6000808291508390505b6001851115620005b157808604811115620005895762000588620007a5565b5b6001851615620005995780820291505b8081029050620005a98562000803565b945062000569565b94509492505050565b6000620005c78262000758565b9150620005d48362000762565b9250620006037fffffffffffffffffffffffffffffffffffffffffffffffffffffffffffffffff84846200060b565b905092915050565b6000826200061d5760019050620006f0565b816200062d5760009050620006f0565b8160018114620006465760028114620006515762000687565b6001915050620006f0565b60ff841115620006665762000665620007a5565b5b8360020a91508482111562000680576200067f620007a5565b5b50620006f0565b5060208310610133831016604e8410600b8410161715620006c15782820a905083811115620006bb57620006ba620007a5565b5b620006f0565b620006d084848460016200055f565b92509050818404811115620006ea57620006e9620007a5565b5b81810290505b9392505050565b6000620007048262000758565b9150620007118362000758565b9250817fffffffffffffffffffffffffffffffffffffffffffffffffffffffffffffffff04831182151516156200074d576200074c620007a5565b5b828202905092915050565b6000819050919050565b600060ff82169050919050565b600060028204905060018216806200078857607f821691505b602082108114156200079f576200079e620007d4565b5b50919050565b7f4e487b7100000000000000000000000000000000000000000000000000000000600052601160045260246000fd5b7f4e487b7100000000000000000000000000000000000000000000000000000000600052602260045260246000fd5b60008160011c9050919050565b7f45524332303a206d696e7420746f20746865207a65726f206164647265737300600082015250565b61231980620008496000396000f3fe608060405234801561001057600080fd5b50600436106101215760003560e01c806370a08231116100ad57806395d89b411161007157806395d89b41146102f8578063a457c2d714610316578063a9059cbb14610346578063dd62ed3e14610376578063f2fde38b146103a657610121565b806370a0823114610268578063715018a61461029857806379cc6790146102a2578063827f32c0146102be5780638da5cb5b146102da57610121565b8063313ce567116100f4578063313ce567146101c2578063355274ea146101e057806339509351146101fe57806342966c681461022e5780635c975abb1461024a57610121565b806306fdde0314610126578063095ea7b31461014457806318160ddd1461017457806323b872dd14610192575b600080fd5b61012e6103c2565b60405161013b9190611993565b60405180910390f35b61015e60048036038101906101599190611630565b610454565b60405161016b9190611978565b60405180910390f35b61017c610472565b6040516101899190611bd5565b60405180910390f35b6101ac60048036038101906101a791906115e1565b61047c565b6040516101b99190611978565b60405180910390f35b6101ca610574565b6040516101d79190611bf0565b60405180910390f35b6101e861057d565b6040516101f59190611bd5565b60405180910390f35b61021860048036038101906102139190611630565b610583565b6040516102259190611978565b60405180910390f35b6102486004803603810190610243919061166c565b61062f565b005b610252610643565b60405161025f9190611978565b60405180910390f35b610282600480360381019061027d919061157c565b61065a565b60405161028f9190611bd5565b60405180910390f35b6102a06106a2565b005b6102bc60048036038101906102b79190611630565b61072a565b005b6102d860048036038101906102d39190611630565b6107a5565b005b6102e2610987565b6040516102ef919061195d565b60405180910390f35b6103006109b1565b60405161030d9190611993565b60405180910390f35b610330600480360381019061032b9190611630565b610a43565b60405161033d9190611978565b60405180910390f35b610360600480360381019061035b9190611630565b610b2e565b60405161036d9190611978565b60405180910390f35b610390600480360381019061038b91906115a5565b610b4c565b60405161039d9190611bd5565b60405180910390f35b6103c060048036038101906103bb919061157c565b610bd3565b005b6060600380546103d190611d93565b80601f01602080910402602001604051908101604052809291908181526020018280546103fd90611d93565b801561044a5780601f1061041f5761010080835404028352916020019161044a565b820191906000526020600020905b81548152906001019060200180831161042d57829003601f168201915b5050505050905090565b6000610468610461610ce1565b8484610ce9565b6001905092915050565b6000600254905090565b6000610489848484610eb4565b6000600160008673ffffffffffffffffffffffffffffffffffffffff1673ffffffffffffffffffffffffffffffffffffffff16815260200190815260200160002060006104d4610ce1565b73ffffffffffffffffffffffffffffffffffffffff1673ffffffffffffffffffffffffffffffffffffffff16815260200190815260200160002054905082811015610554576040517f08c379a000000000000000000000000000000000000000000000000000000000815260040161054b90611ab5565b60405180910390fd5b61056885610560610ce1565b858403610ce9565b60019150509392505050565b60006012905090565b60065481565b6000610625610590610ce1565b84846001600061059e610ce1565b73ffffffffffffffffffffffffffffffffffffffff1673ffffffffffffffffffffffffffffffffffffffff16815260200190815260200160002060008873ffffffffffffffffffffffffffffffffffffffff1673ffffffffffffffffffffffffffffffffffffffff168152602001908152602001600020546106209190611c27565b610ce9565b6001905092915050565b61064061063a610ce1565b82611135565b50565b6000600560149054906101000a900460ff16905090565b60008060008373ffffffffffffffffffffffffffffffffffffffff1673ffffffffffffffffffffffffffffffffffffffff168152602001908152602001600020549050919050565b6106aa610ce1565b73ffffffffffffffffffffffffffffffffffffffff166106c8610987565b73ffffffffffffffffffffffffffffffffffffffff161461071e576040517f08c379a000000000000000000000000000000000000000000000000000000000815260040161071590611ad5565b60405180910390fd5b610728600061130c565b565b600061073d83610738610ce1565b610b4c565b905081811015610782576040517f08c379a000000000000000000000000000000000000000000000000000000000815260040161077990611b15565b60405180910390fd5b6107968361078e610ce1565b848403610ce9565b6107a08383611135565b505050565b6107ad610643565b156107ed576040517f08c379a00000000000000000000000000000000000000000000000000000000081526004016107e490611a95565b60405180910390fd5b6107f5610ce1565b73ffffffffffffffffffffffffffffffffffffffff16610813610987565b73ffffffffffffffffffffffffffffffffffffffff1614610869576040517f08c379a000000000000000000000000000000000000000000000000000000000815260040161086090611ad5565b60405180910390fd5b600073ffffffffffffffffffffffffffffffffffffffff168273ffffffffffffffffffffffffffffffffffffffff1614156108d9576040517f08c379a00000000000000000000000000000000000000000000000000000000081526004016108d0906119d5565b60405180910390fd5b6000811161091c576040517f08c379a000000000000000000000000000000000000000000000000000000000815260040161091390611a55565b60405180910390fd5b6006546109398261092b610472565b6113d290919063ffffffff16565b10610979576040517f08c379a000000000000000000000000000000000000000000000000000000000815260040161097090611af5565b60405180910390fd5b61098382826113e8565b5050565b6000600560009054906101000a900473ffffffffffffffffffffffffffffffffffffffff16905090565b6060600480546109c090611d93565b80601f01602080910402602001604051908101604052809291908181526020018280546109ec90611d93565b8015610a395780601f10610a0e57610100808354040283529160200191610a39565b820191906000526020600020905b815481529060010190602001808311610a1c57829003601f168201915b5050505050905090565b60008060016000610a52610ce1565b73ffffffffffffffffffffffffffffffffffffffff1673ffffffffffffffffffffffffffffffffffffffff16815260200190815260200160002060008573ffffffffffffffffffffffffffffffffffffffff1673ffffffffffffffffffffffffffffffffffffffff16815260200190815260200160002054905082811015610b0f576040517f08c379a0000000000000000000000000000000000000000000000000000000008152600401610b0690611b95565b60405180910390fd5b610b23610b1a610ce1565b85858403610ce9565b600191505092915050565b6000610b42610b3b610ce1565b8484610eb4565b6001905092915050565b6000600160008473ffffffffffffffffffffffffffffffffffffffff1673ffffffffffffffffffffffffffffffffffffffff16815260200190815260200160002060008373ffffffffffffffffffffffffffffffffffffffff1673ffffffffffffffffffffffffffffffffffffffff16815260200190815260200160002054905092915050565b610bdb610ce1565b73ffffffffffffffffffffffffffffffffffffffff16610bf9610987565b73ffffffffffffffffffffffffffffffffffffffff1614610c4f576040517f08c379a0000000000000000000000000000000000000000000000000000000008152600401610c4690611ad5565b60405180910390fd5b600073ffffffffffffffffffffffffffffffffffffffff168173ffffffffffffffffffffffffffffffffffffffff161415610cbf576040517f08c379a0000000000000000000000000000000000000000000000000000000008152600401610cb690611a15565b60405180910390fd5b610cc88161130c565b50565b60008183610cd99190611c7d565b905092915050565b600033905090565b600073ffffffffffffffffffffffffffffffffffffffff168373ffffffffffffffffffffffffffffffffffffffff161415610d59576040517f08c379a0000000000000000000000000000000000000000000000000000000008152600401610d5090611b75565b60405180910390fd5b600073ffffffffffffffffffffffffffffffffffffffff168273ffffffffffffffffffffffffffffffffffffffff161415610dc9576040517f08c379a0000000000000000000000000000000000000000000000000000000008152600401610dc090611a35565b60405180910390fd5b80600160008573ffffffffffffffffffffffffffffffffffffffff1673ffffffffffffffffffffffffffffffffffffffff16815260200190815260200160002060008473ffffffffffffffffffffffffffffffffffffffff1673ffffffffffffffffffffffffffffffffffffffff168152602001908152602001600020819055508173ffffffffffffffffffffffffffffffffffffffff168373ffffffffffffffffffffffffffffffffffffffff167f8c5be1e5ebec7d5bd14f71427d1e84f3dd0314c0f7b2291e5b200ac8c7c3b92583604051610ea79190611bd5565b60405180910390a3505050565b600073ffffffffffffffffffffffffffffffffffffffff168373ffffffffffffffffffffffffffffffffffffffff161415610f24576040517f08c379a0000000000000000000000000000000000000000000000000000000008152600401610f1b90611b55565b60405180910390fd5b600073ffffffffffffffffffffffffffffffffffffffff168273ffffffffffffffffffffffffffffffffffffffff161415610f94576040517f08c379a0000000000000000000000000000000000000000000000000000000008152600401610f8b906119b5565b60405180910390fd5b610f9f838383611548565b60008060008573ffffffffffffffffffffffffffffffffffffffff1673ffffffffffffffffffffffffffffffffffffffff16815260200190815260200160002054905081811015611025576040517f08c379a000000000000000000000000000000000000000000000000000000000815260040161101c90611a75565b60405180910390fd5b8181036000808673ffffffffffffffffffffffffffffffffffffffff1673ffffffffffffffffffffffffffffffffffffffff16815260200190815260200160002081905550816000808573ffffffffffffffffffffffffffffffffffffffff1673ffffffffffffffffffffffffffffffffffffffff16815260200190815260200160002060008282546110b89190611c27565b925050819055508273ffffffffffffffffffffffffffffffffffffffff168473ffffffffffffffffffffffffffffffffffffffff167fddf252ad1be2c89b69c2b068fc378daa952ba7f163c4a11628f55a4df523b3ef8460405161111c9190611bd5565b60405180910390a361112f84848461154d565b50505050565b600073ffffffffffffffffffffffffffffffffffffffff168273ffffffffffffffffffffffffffffffffffffffff1614156111a5576040517f08c379a000000000000000000000000000000000000000000000000000000000815260040161119c90611b35565b60405180910390fd5b6111b182600083611548565b60008060008473ffffffffffffffffffffffffffffffffffffffff1673ffffffffffffffffffffffffffffffffffffffff16815260200190815260200160002054905081811015611237576040517f08c379a000000000000000000000000000000000000000000000000000000000815260040161122e906119f5565b60405180910390fd5b8181036000808573ffffffffffffffffffffffffffffffffffffffff1673ffffffffffffffffffffffffffffffffffffffff16815260200190815260200160002081905550816002600082825461128e9190611cd7565b92505081905550600073ffffffffffffffffffffffffffffffffffffffff168373ffffffffffffffffffffffffffffffffffffffff167fddf252ad1be2c89b69c2b068fc378daa952ba7f163c4a11628f55a4df523b3ef846040516112f39190611bd5565b60405180910390a36113078360008461154d565b505050565b6000600560009054906101000a900473ffffffffffffffffffffffffffffffffffffffff16905081600560006101000a81548173ffffffffffffffffffffffffffffffffffffffff021916908373ffffffffffffffffffffffffffffffffffffffff1602179055508173ffffffffffffffffffffffffffffffffffffffff168173ffffffffffffffffffffffffffffffffffffffff167f8be0079c531659141344cd1fd0a4f28419497f9722a3daafe3b4186f6b6457e060405160405180910390a35050565b600081836113e09190611c27565b905092915050565b600073ffffffffffffffffffffffffffffffffffffffff168273ffffffffffffffffffffffffffffffffffffffff161415611458576040517f08c379a000000000000000000000000000000000000000000000000000000000815260040161144f90611bb5565b60405180910390fd5b61146460008383611548565b80600260008282546114769190611c27565b92505081905550806000808473ffffffffffffffffffffffffffffffffffffffff1673ffffffffffffffffffffffffffffffffffffffff16815260200190815260200160002060008282546114cb9190611c27565b925050819055508173ffffffffffffffffffffffffffffffffffffffff16600073ffffffffffffffffffffffffffffffffffffffff167fddf252ad1be2c89b69c2b068fc378daa952ba7f163c4a11628f55a4df523b3ef836040516115309190611bd5565b60405180910390a36115446000838361154d565b5050565b505050565b505050565b600081359050611561816122b5565b92915050565b600081359050611576816122cc565b92915050565b60006020828403121561158e57600080fd5b600061159c84828501611552565b91505092915050565b600080604083850312156115b857600080fd5b60006115c685828601611552565b92505060206115d785828601611552565b9150509250929050565b6000806000606084860312156115f657600080fd5b600061160486828701611552565b935050602061161586828701611552565b925050604061162686828701611567565b9150509250925092565b6000806040838503121561164357600080fd5b600061165185828601611552565b925050602061166285828601611567565b9150509250929050565b60006020828403121561167e57600080fd5b600061168c84828501611567565b91505092915050565b61169e81611d0b565b82525050565b6116ad81611d1d565b82525050565b60006116be82611c0b565b6116c88185611c16565b93506116d8818560208601611d60565b6116e181611e23565b840191505092915050565b60006116f9602383611c16565b915061170482611e34565b604082019050919050565b600061171c600f83611c16565b915061172782611e83565b602082019050919050565b600061173f602283611c16565b915061174a82611eac565b604082019050919050565b6000611762602683611c16565b915061176d82611efb565b604082019050919050565b6000611785602283611c16565b915061179082611f4a565b604082019050919050565b60006117a8600e83611c16565b91506117b382611f99565b602082019050919050565b60006117cb602683611c16565b91506117d682611fc2565b604082019050919050565b60006117ee601083611c16565b91506117f982612011565b602082019050919050565b6000611811602883611c16565b915061181c8261203a565b604082019050919050565b6000611834602083611c16565b915061183f82612089565b602082019050919050565b6000611857602983611c16565b9150611862826120b2565b604082019050919050565b600061187a602483611c16565b915061188582612101565b604082019050919050565b600061189d602183611c16565b91506118a882612150565b604082019050919050565b60006118c0602583611c16565b91506118cb8261219f565b604082019050919050565b60006118e3602483611c16565b91506118ee826121ee565b604082019050919050565b6000611906602583611c16565b91506119118261223d565b604082019050919050565b6000611929601f83611c16565b91506119348261228c565b602082019050919050565b61194881611d49565b82525050565b61195781611d53565b82525050565b60006020820190506119726000830184611695565b92915050565b600060208201905061198d60008301846116a4565b92915050565b600060208201905081810360008301526119ad81846116b3565b905092915050565b600060208201905081810360008301526119ce816116ec565b9050919050565b600060208201905081810360008301526119ee8161170f565b9050919050565b60006020820190508181036000830152611a0e81611732565b9050919050565b60006020820190508181036000830152611a2e81611755565b9050919050565b60006020820190508181036000830152611a4e81611778565b9050919050565b60006020820190508181036000830152611a6e8161179b565b9050919050565b60006020820190508181036000830152611a8e816117be565b9050919050565b60006020820190508181036000830152611aae816117e1565b9050919050565b60006020820190508181036000830152611ace81611804565b9050919050565b60006020820190508181036000830152611aee81611827565b9050919050565b60006020820190508181036000830152611b0e8161184a565b9050919050565b60006020820190508181036000830152611b2e8161186d565b9050919050565b60006020820190508181036000830152611b4e81611890565b9050919050565b60006020820190508181036000830152611b6e816118b3565b9050919050565b60006020820190508181036000830152611b8e816118d6565b9050919050565b60006020820190508181036000830152611bae816118f9565b9050919050565b60006020820190508181036000830152611bce8161191c565b9050919050565b6000602082019050611bea600083018461193f565b92915050565b6000602082019050611c05600083018461194e565b92915050565b600081519050919050565b600082825260208201905092915050565b6000611c3282611d49565b9150611c3d83611d49565b9250827fffffffffffffffffffffffffffffffffffffffffffffffffffffffffffffffff03821115611c7257611c71611dc5565b5b828201905092915050565b6000611c8882611d49565b9150611c9383611d49565b9250817fffffffffffffffffffffffffffffffffffffffffffffffffffffffffffffffff0483118215151615611ccc57611ccb611dc5565b5b828202905092915050565b6000611ce282611d49565b9150611ced83611d49565b925082821015611d0057611cff611dc5565b5b828203905092915050565b6000611d1682611d29565b9050919050565b60008115159050919050565b600073ffffffffffffffffffffffffffffffffffffffff82169050919050565b6000819050919050565b600060ff82169050919050565b60005b83811015611d7e578082015181840152602081019050611d63565b83811115611d8d576000848401525b50505050565b60006002820490506001821680611dab57607f821691505b60208210811415611dbf57611dbe611df4565b5b50919050565b7f4e487b7100000000000000000000000000000000000000000000000000000000600052601160045260246000fd5b7f4e487b7100000000000000000000000000000000000000000000000000000000600052602260045260246000fd5b6000601f19601f8301169050919050565b7f45524332303a207472616e7366657220746f20746865207a65726f206164647260008201527f6573730000000000000000000000000000000000000000000000000000000000602082015250565b7f496e76616c696420616464726573730000000000000000000000000000000000600082015250565b7f45524332303a206275726e20616d6f756e7420657863656564732062616c616e60008201527f6365000000000000000000000000000000000000000000000000000000000000602082015250565b7f4f776e61626c653a206e6577206f776e657220697320746865207a65726f206160008201527f6464726573730000000000000000000000000000000000000000000000000000602082015250565b7f45524332303a20617070726f766520746f20746865207a65726f20616464726560008201527f7373000000000000000000000000000000000000000000000000000000000000602082015250565b7f496e76616c696420416d6f756e74000000000000000000000000000000000000600082015250565b7f45524332303a207472616e7366657220616d6f756e742065786365656473206260008201527f616c616e63650000000000000000000000000000000000000000000000000000602082015250565b7f5061757361626c653a2070617573656400000000000000000000000000000000600082015250565b7f45524332303a207472616e7366657220616d6f756e742065786365656473206160008201527f6c6c6f77616e6365000000000000000000000000000000000000000000000000602082015250565b7f4f776e61626c653a2063616c6c6572206973206e6f7420746865206f776e6572600082015250565b7f4f7665726c696d697420546f6b656e3a20546f6b656e2067656e65726174696f60008201527f6e206661696c6564210000000000000000000000000000000000000000000000602082015250565b7f45524332303a206275726e20616d6f756e74206578636565647320616c6c6f7760008201527f616e636500000000000000000000000000000000000000000000000000000000602082015250565b7f45524332303a206275726e2066726f6d20746865207a65726f2061646472657360008201527f7300000000000000000000000000000000000000000000000000000000000000602082015250565b7f45524332303a207472616e736665722066726f6d20746865207a65726f20616460008201527f6472657373000000000000000000000000000000000000000000000000000000602082015250565b7f45524332303a20617070726f76652066726f6d20746865207a65726f2061646460008201527f7265737300000000000000000000000000000000000000000000000000000000602082015250565b7f45524332303a2064656372656173656420616c6c6f77616e63652062656c6f7760008201527f207a65726f000000000000000000000000000000000000000000000000000000602082015250565b7f45524332303a206d696e7420746f20746865207a65726f206164647265737300600082015250565b6122be81611d0b565b81146122c957600080fd5b50565b6122d581611d49565b81146122e057600080fd5b5056fea2646970667358221220cbe1cbb416e77a37a43595080561a6f7a5ed0ce0ec62070a69b68f9ae52ad0e264736f6c63430008040033",
  "immutableReferences": {},
  "source": "// SPDX-License-Identifier: UNLICENSED\npragma solidity ^0.8.0;\n\nimport \"@openzeppelin/contracts/token/ERC20/ERC20.sol\";\nimport \"@openzeppelin/contracts/utils/math/SafeMath.sol\";\nimport \"@openzeppelin/contracts/access/Ownable.sol\";\nimport \"@openzeppelin/contracts/token/ERC20/extensions/ERC20Burnable.sol\";\nimport \"@openzeppelin/contracts/token/ERC20/extensions/ERC20Pausable.sol\";\n\ncontract myDemoToken is ERC20, Ownable, ERC20Burnable, Pausable{\n    using SafeMath for uint;\n    uint public cap;\n    \n    constructor() ERC20(\"myDemoToken\", \"MDT\"){\n        uint initialSupply = 10000 * (10 ** decimals());\n        cap = initialSupply.mul(2);\n        _mint(msg.sender, initialSupply);\n    }\n    \n    function generateTokens(address account, uint amount) public whenNotPaused onlyOwner{\n        require(account != address(0), \"Invalid address\");\n        require(amount > 0, \"Invalid Amount\");\n        require(totalSupply().add(amount) < cap, \"Overlimit Token: Token generation failed!\");\n        _mint(account, amount);\n    }\n    \n    // function stopTransaction() public whenNotPaused onlyOwner{\n    //     _pause;\n    // }\n    \n    // function startTransaction() public whenPaused onlyOwner{\n    //     _unpause;\n    // }\n}",
  "sourcePath": "/home/aliwisam/AliWisamData/Learning/Practice/Demo-Truffle-Project/Q3 Classes/Truffle ERC20/contracts/myDemoToken.sol",
  "compiler": {
    "name": "solc",
    "version": "0.8.4+commit.c7e474f2.Emscripten.clang"
  },
  "schemaVersion": "3.4.0",
  "updatedAt": "2021-08-22T20:12:31.184Z",
  "devdoc": {
    "kind": "dev",
    "methods": {
      "allowance(address,address)": {
        "details": "See {IERC20-allowance}."
      },
      "approve(address,uint256)": {
        "details": "See {IERC20-approve}. Requirements: - `spender` cannot be the zero address."
      },
      "balanceOf(address)": {
        "details": "See {IERC20-balanceOf}."
      },
      "burn(uint256)": {
        "details": "Destroys `amount` tokens from the caller. See {ERC20-_burn}."
      },
      "burnFrom(address,uint256)": {
        "details": "Destroys `amount` tokens from `account`, deducting from the caller's allowance. See {ERC20-_burn} and {ERC20-allowance}. Requirements: - the caller must have allowance for ``accounts``'s tokens of at least `amount`."
      },
      "decimals()": {
        "details": "Returns the number of decimals used to get its user representation. For example, if `decimals` equals `2`, a balance of `505` tokens should be displayed to a user as `5.05` (`505 / 10 ** 2`). Tokens usually opt for a value of 18, imitating the relationship between Ether and Wei. This is the value {ERC20} uses, unless this function is overridden; NOTE: This information is only used for _display_ purposes: it in no way affects any of the arithmetic of the contract, including {IERC20-balanceOf} and {IERC20-transfer}."
      },
      "decreaseAllowance(address,uint256)": {
        "details": "Atomically decreases the allowance granted to `spender` by the caller. This is an alternative to {approve} that can be used as a mitigation for problems described in {IERC20-approve}. Emits an {Approval} event indicating the updated allowance. Requirements: - `spender` cannot be the zero address. - `spender` must have allowance for the caller of at least `subtractedValue`."
      },
      "increaseAllowance(address,uint256)": {
        "details": "Atomically increases the allowance granted to `spender` by the caller. This is an alternative to {approve} that can be used as a mitigation for problems described in {IERC20-approve}. Emits an {Approval} event indicating the updated allowance. Requirements: - `spender` cannot be the zero address."
      },
      "name()": {
        "details": "Returns the name of the token."
      },
      "owner()": {
        "details": "Returns the address of the current owner."
      },
      "paused()": {
        "details": "Returns true if the contract is paused, and false otherwise."
      },
      "renounceOwnership()": {
        "details": "Leaves the contract without owner. It will not be possible to call `onlyOwner` functions anymore. Can only be called by the current owner. NOTE: Renouncing ownership will leave the contract without an owner, thereby removing any functionality that is only available to the owner."
      },
      "symbol()": {
        "details": "Returns the symbol of the token, usually a shorter version of the name."
      },
      "totalSupply()": {
        "details": "See {IERC20-totalSupply}."
      },
      "transfer(address,uint256)": {
        "details": "See {IERC20-transfer}. Requirements: - `recipient` cannot be the zero address. - the caller must have a balance of at least `amount`."
      },
      "transferFrom(address,address,uint256)": {
        "details": "See {IERC20-transferFrom}. Emits an {Approval} event indicating the updated allowance. This is not required by the EIP. See the note at the beginning of {ERC20}. Requirements: - `sender` and `recipient` cannot be the zero address. - `sender` must have a balance of at least `amount`. - the caller must have allowance for ``sender``'s tokens of at least `amount`."
      },
      "transferOwnership(address)": {
        "details": "Transfers ownership of the contract to a new account (`newOwner`). Can only be called by the current owner."
      }
    },
    "version": 1
  },
  "userdoc": {
    "kind": "user",
    "methods": {},
    "version": 1
  }
}